:020000040000FA
:0A0000008316FF2390008312FD2BEE
:10053A008312051008008312051108008312851220
:10054A000800831285160800831205120800831218
:10055A000516080083120514080083120515080001
:10056A008312A6002603031DBB2ABC2AC02A0F3009
:10057A000F230130C32A0F30EA2200300800AF22CD
:10058A0083122408A1002308A000D3229D228312EB
:10059A002408A1002308A000D3220800E22AC730B9
:1005AA00A200D72AA20BD62ADA2ADB2A0130831222
:1005BA00A0020030031CA103A10283122008210417
:1005CA00031DE82AE92AD42A08008312A500A622D4
:1005DA0083122508A300A4012308A0002408A1006F
:1005EA00D3229D22A022AC2207308312A4007D30A0
:1005FA00A300A30BFE2AA40BFE2AA022A92283127F
:10060A002508A300A4012308A0002408A100D322DE
:10061A00A32208008312A500A62283122508A3009C
:10062A00A4012308A0002408A100D322AF22B222E9
:10063A00A92207308312A4007D30A300A30B232B29
:10064A00A40B232BA022A92283122508A300A4010C
:10065A002308A0002408A100D322A322080083169D
:10066A009F010730831299009F0183160510851494
:10067A000511851505128512831285018519462BE8
:10068A00472B4A2BA901A90A4B2BA901AF01AD019E
:10069A007D30A3000030A400C4227D308312A30061
:1006AA000030A400C42283122903031D5D2B5E2B94
:1006BA006A2B7D30A3000030A400C4220130B52289
:1006CA00DF005F088312AA00702B0030B522DF001A
:1006DA005F088312AA008518732B742BA22B0F3084
:1006EA00DF005F08AE00AB01902BC730A7007D2B5F
:1006FA00A70B7C2B802B812B83128518852B862BAD
:10070A008B2B0130DF005F08AB078E2BAB01AE01EC
:10071A00AE0A0130AE022E08031D942B952B7A2BBC
:10072A000F302B02031C9A2B9B2BA22B2F0303198E
:10073A009F2BA02BA22BAF01AF0A851CA52BA62BA2
:10074A00DA2B0F30DF005F08AE00AC01C22BC730D6
:10075A00A700AF2BA70BAE2BB22BB32B8312851C92
:10076A00B72BB82BBD2B0130DF005F08AC07C02BBD
:10077A00AC01AE01AE0A0130AE022E08031DC62B33
:10078A00C72BAC2B0F302C02031CCC2BCD2BDA2B16
:10079A002F080319D12BD22BD32BAF012D03031909
:1007AA00D72BD82BDA2BAD01AD0A2F03031DDE2B75
:1007BA00DF2B702B2D03031DE32BE42B702B2A0850
:1007CA000319E82BEA2B0130EB2B0030B522DF00AE
:1007DA005F088312AA000D30A800FB30A700A70B00
:1007EA00F42BA80BF42BF92B8312AD01702B0028E4
:0407FA008301342B18
:02400E009431EB
:00000001FF
